{
  "_format": "hh-sol-artifact-1",
  "contractName": "KudosTracker",
  "sourceName": "contracts/KudosTracker.sol",
  "abi": [
    {
      "anonymous": false,
      "inputs": [
        {
          "indexed": true,
          "internalType": "address",
          "name": "from",
          "type": "address"
        },
        {
          "indexed": true,
          "internalType": "address",
          "name": "to",
          "type": "address"
        },
        {
          "indexed": false,
          "internalType": "string",
          "name": "fromHandle",
          "type": "string"
        },
        {
          "indexed": false,
          "internalType": "string",
          "name": "toHandle",
          "type": "string"
        },
        {
          "indexed": false,
          "internalType": "string",
          "name": "tweetUrl",
          "type": "string"
        },
        {
          "indexed": false,
          "internalType": "uint256",
          "name": "timestamp",
          "type": "uint256"
        }
      ],
      "name": "KudosGiven",
      "type": "event"
    },
    {
      "anonymous": false,
      "inputs": [
        {
          "indexed": true,
          "internalType": "address",
          "name": "user",
          "type": "address"
        },
        {
          "indexed": false,
          "internalType": "bool",
          "name": "isPrivate",
          "type": "bool"
        }
      ],
      "name": "ProfilePrivacyUpdated",
      "type": "event"
    },
    {
      "anonymous": false,
      "inputs": [
        {
          "indexed": true,
          "internalType": "address",
          "name": "user",
          "type": "address"
        },
        {
          "indexed": false,
          "internalType": "string",
          "name": "xHandle",
          "type": "string"
        },
        {
          "indexed": false,
          "internalType": "uint256",
          "name": "timestamp",
          "type": "uint256"
        }
      ],
      "name": "UserDeleted",
      "type": "event"
    },
    {
      "anonymous": false,
      "inputs": [
        {
          "indexed": true,
          "internalType": "address",
          "name": "user",
          "type": "address"
        },
        {
          "indexed": false,
          "internalType": "string",
          "name": "xHandle",
          "type": "string"
        }
      ],
      "name": "UserDeletionCancelled",
      "type": "event"
    },
    {
      "anonymous": false,
      "inputs": [
        {
          "indexed": true,
          "internalType": "address",
          "name": "user",
          "type": "address"
        },
        {
          "indexed": false,
          "internalType": "string",
          "name": "xHandle",
          "type": "string"
        },
        {
          "indexed": false,
          "internalType": "uint256",
          "name": "timestamp",
          "type": "uint256"
        }
      ],
      "name": "UserDeletionRequested",
      "type": "event"
    },
    {
      "anonymous": false,
      "inputs": [
        {
          "indexed": true,
          "internalType": "address",
          "name": "user",
          "type": "address"
        },
        {
          "indexed": false,
          "internalType": "string",
          "name": "xHandle",
          "type": "string"
        },
        {
          "indexed": false,
          "internalType": "uint256",
          "name": "timestamp",
          "type": "uint256"
        }
      ],
      "name": "UserRegistered",
      "type": "event"
    },
    {
      "inputs": [],
      "name": "DELETION_GRACE_PERIOD",
      "outputs": [
        {
          "internalType": "uint256",
          "name": "",
          "type": "uint256"
        }
      ],
      "stateMutability": "view",
      "type": "function"
    },
    {
      "inputs": [],
      "name": "MAX_HANDLE_LENGTH",
      "outputs": [
        {
          "internalType": "uint256",
          "name": "",
          "type": "uint256"
        }
      ],
      "stateMutability": "view",
      "type": "function"
    },
    {
      "inputs": [],
      "name": "MIN_HANDLE_LENGTH",
      "outputs": [
        {
          "internalType": "uint256",
          "name": "",
          "type": "uint256"
        }
      ],
      "stateMutability": "view",
      "type": "function"
    },
    {
      "inputs": [],
      "name": "REREGISTRATION_COOLDOWN",
      "outputs": [
        {
          "internalType": "uint256",
          "name": "",
          "type": "uint256"
        }
      ],
      "stateMutability": "view",
      "type": "function"
    },
    {
      "inputs": [],
      "name": "cancelAccountDeletion",
      "outputs": [],
      "stateMutability": "nonpayable",
      "type": "function"
    },
    {
      "inputs": [
        {
          "internalType": "string",
          "name": "",
          "type": "string"
        }
      ],
      "name": "deletedHandles",
      "outputs": [
        {
          "internalType": "bool",
          "name": "",
          "type": "bool"
        }
      ],
      "stateMutability": "view",
      "type": "function"
    },
    {
      "inputs": [
        {
          "internalType": "address",
          "name": "_user",
          "type": "address"
        }
      ],
      "name": "executeAccountDeletion",
      "outputs": [],
      "stateMutability": "nonpayable",
      "type": "function"
    },
    {
      "inputs": [
        {
          "internalType": "address",
          "name": "_user",
          "type": "address"
        }
      ],
      "name": "getAccountStatus",
      "outputs": [
        {
          "internalType": "bool",
          "name": "isRegistered",
          "type": "bool"
        },
        {
          "internalType": "bool",
          "name": "isPendingDeletion",
          "type": "bool"
        },
        {
          "internalType": "uint256",
          "name": "deletionTime",
          "type": "uint256"
        },
        {
          "internalType": "bool",
          "name": "canReregister",
          "type": "bool"
        }
      ],
      "stateMutability": "view",
      "type": "function"
    },
    {
      "inputs": [],
      "name": "getKudosHistory",
      "outputs": [
        {
          "components": [
            {
              "internalType": "address",
              "name": "from",
              "type": "address"
            },
            {
              "internalType": "address",
              "name": "to",
              "type": "address"
            },
            {
              "internalType": "string",
              "name": "fromHandle",
              "type": "string"
            },
            {
              "internalType": "string",
              "name": "toHandle",
              "type": "string"
            },
            {
              "internalType": "uint256",
              "name": "timestamp",
              "type": "uint256"
            },
            {
              "internalType": "string",
              "name": "tweetUrl",
              "type": "string"
            }
          ],
          "internalType": "struct KudosTracker.KudosTransaction[]",
          "name": "",
          "type": "tuple[]"
        }
      ],
      "stateMutability": "view",
      "type": "function"
    },
    {
      "inputs": [],
      "name": "getKudosHistoryLength",
      "outputs": [
        {
          "internalType": "uint256",
          "name": "",
          "type": "uint256"
        }
      ],
      "stateMutability": "view",
      "type": "function"
    },
    {
      "inputs": [
        {
          "internalType": "uint256",
          "name": "_offset",
          "type": "uint256"
        },
        {
          "internalType": "uint256",
          "name": "_limit",
          "type": "uint256"
        }
      ],
      "name": "getKudosHistoryPage",
      "outputs": [
        {
          "components": [
            {
              "internalType": "address",
              "name": "from",
              "type": "address"
            },
            {
              "internalType": "address",
              "name": "to",
              "type": "address"
            },
            {
              "internalType": "string",
              "name": "fromHandle",
              "type": "string"
            },
            {
              "internalType": "string",
              "name": "toHandle",
              "type": "string"
            },
            {
              "internalType": "uint256",
              "name": "timestamp",
              "type": "uint256"
            },
            {
              "internalType": "string",
              "name": "tweetUrl",
              "type": "string"
            }
          ],
          "internalType": "struct KudosTracker.KudosTransaction[]",
          "name": "",
          "type": "tuple[]"
        }
      ],
      "stateMutability": "view",
      "type": "function"
    },
    {
      "inputs": [
        {
          "internalType": "uint256",
          "name": "_limit",
          "type": "uint256"
        }
      ],
      "name": "getLeaderboard",
      "outputs": [
        {
          "internalType": "string[]",
          "name": "handles",
          "type": "string[]"
        },
        {
          "internalType": "uint256[]",
          "name": "kudosReceived",
          "type": "uint256[]"
        },
        {
          "internalType": "address[]",
          "name": "addresses",
          "type": "address[]"
        }
      ],
      "stateMutability": "view",
      "type": "function"
    },
    {
      "inputs": [
        {
          "internalType": "address",
          "name": "_user",
          "type": "address"
        }
      ],
      "name": "getUserByAddress",
      "outputs": [
        {
          "components": [
            {
              "internalType": "string",
              "name": "xHandle",
              "type": "string"
            },
            {
              "internalType": "uint256",
              "name": "kudosReceived",
              "type": "uint256"
            },
            {
              "internalType": "uint256",
              "name": "kudosGiven",
              "type": "uint256"
            },
            {
              "internalType": "bool",
              "name": "isRegistered",
              "type": "bool"
            },
            {
              "internalType": "uint256",
              "name": "registeredAt",
              "type": "uint256"
            },
            {
              "internalType": "uint256",
              "name": "deletionRequestedAt",
              "type": "uint256"
            }
          ],
          "internalType": "struct KudosTracker.User",
          "name": "",
          "type": "tuple"
        }
      ],
      "stateMutability": "view",
      "type": "function"
    },
    {
      "inputs": [
        {
          "internalType": "string",
          "name": "_handle",
          "type": "string"
        }
      ],
      "name": "getUserByHandle",
      "outputs": [
        {
          "components": [
            {
              "internalType": "string",
              "name": "xHandle",
              "type": "string"
            },
            {
              "internalType": "uint256",
              "name": "kudosReceived",
              "type": "uint256"
            },
            {
              "internalType": "uint256",
              "name": "kudosGiven",
              "type": "uint256"
            },
            {
              "internalType": "bool",
              "name": "isRegistered",
              "type": "bool"
            },
            {
              "internalType": "uint256",
              "name": "registeredAt",
              "type": "uint256"
            },
            {
              "internalType": "uint256",
              "name": "deletionRequestedAt",
              "type": "uint256"
            }
          ],
          "internalType": "struct KudosTracker.User",
          "name": "",
          "type": "tuple"
        }
      ],
      "stateMutability": "view",
      "type": "function"
    },
    {
      "inputs": [
        {
          "internalType": "string",
          "name": "_handle",
          "type": "string"
        }
      ],
      "name": "getUserKudos",
      "outputs": [
        {
          "internalType": "uint256",
          "name": "",
          "type": "uint256"
        }
      ],
      "stateMutability": "view",
      "type": "function"
    },
    {
      "inputs": [
        {
          "internalType": "string",
          "name": "_toHandle",
          "type": "string"
        },
        {
          "internalType": "string",
          "name": "_tweetUrl",
          "type": "string"
        }
      ],
      "name": "giveKudos",
      "outputs": [],
      "stateMutability": "nonpayable",
      "type": "function"
    },
    {
      "inputs": [
        {
          "internalType": "string",
          "name": "",
          "type": "string"
        }
      ],
      "name": "handleToAddress",
      "outputs": [
        {
          "internalType": "address",
          "name": "",
          "type": "address"
        }
      ],
      "stateMutability": "view",
      "type": "function"
    },
    {
      "inputs": [
        {
          "internalType": "string",
          "name": "_handle",
          "type": "string"
        }
      ],
      "name": "isHandleAvailable",
      "outputs": [
        {
          "internalType": "bool",
          "name": "",
          "type": "bool"
        }
      ],
      "stateMutability": "view",
      "type": "function"
    },
    {
      "inputs": [
        {
          "internalType": "uint256",
          "name": "",
          "type": "uint256"
        }
      ],
      "name": "kudosHistory",
      "outputs": [
        {
          "internalType": "address",
          "name": "from",
          "type": "address"
        },
        {
          "internalType": "address",
          "name": "to",
          "type": "address"
        },
        {
          "internalType": "string",
          "name": "fromHandle",
          "type": "string"
        },
        {
          "internalType": "string",
          "name": "toHandle",
          "type": "string"
        },
        {
          "internalType": "uint256",
          "name": "timestamp",
          "type": "uint256"
        },
        {
          "internalType": "string",
          "name": "tweetUrl",
          "type": "string"
        }
      ],
      "stateMutability": "view",
      "type": "function"
    },
    {
      "inputs": [
        {
          "internalType": "address",
          "name": "",
          "type": "address"
        }
      ],
      "name": "lastDeletionTime",
      "outputs": [
        {
          "internalType": "uint256",
          "name": "",
          "type": "uint256"
        }
      ],
      "stateMutability": "view",
      "type": "function"
    },
    {
      "inputs": [
        {
          "internalType": "address",
          "name": "",
          "type": "address"
        }
      ],
      "name": "privateProfiles",
      "outputs": [
        {
          "internalType": "bool",
          "name": "",
          "type": "bool"
        }
      ],
      "stateMutability": "view",
      "type": "function"
    },
    {
      "inputs": [
        {
          "internalType": "string",
          "name": "",
          "type": "string"
        }
      ],
      "name": "processedTweets",
      "outputs": [
        {
          "internalType": "bool",
          "name": "",
          "type": "bool"
        }
      ],
      "stateMutability": "view",
      "type": "function"
    },
    {
      "inputs": [
        {
          "internalType": "string",
          "name": "_xHandle",
          "type": "string"
        }
      ],
      "name": "registerUser",
      "outputs": [],
      "stateMutability": "nonpayable",
      "type": "function"
    },
    {
      "inputs": [],
      "name": "requestAccountDeletion",
      "outputs": [],
      "stateMutability": "nonpayable",
      "type": "function"
    },
    {
      "inputs": [
        {
          "internalType": "bool",
          "name": "_isPrivate",
          "type": "bool"
        }
      ],
      "name": "setProfilePrivacy",
      "outputs": [],
      "stateMutability": "nonpayable",
      "type": "function"
    },
    {
      "inputs": [
        {
          "internalType": "address",
          "name": "",
          "type": "address"
        }
      ],
      "name": "users",
      "outputs": [
        {
          "internalType": "string",
          "name": "xHandle",
          "type": "string"
        },
        {
          "internalType": "uint256",
          "name": "kudosReceived",
          "type": "uint256"
        },
        {
          "internalType": "uint256",
          "name": "kudosGiven",
          "type": "uint256"
        },
        {
          "internalType": "bool",
          "name": "isRegistered",
          "type": "bool"
        },
        {
          "internalType": "uint256",
          "name": "registeredAt",
          "type": "uint256"
        },
        {
          "internalType": "uint256",
          "name": "deletionRequestedAt",
          "type": "uint256"
        }
      ],
      "stateMutability": "view",
      "type": "function"
    }
  ],
  "bytecode": "0x608060405234801561001057600080fd5b5061554c806100206000396000f3fe608060405234801561001057600080fd5b506004361061018e5760003560e01c806388ea7d3c116100de578063b281976111610097578063d47fc1a311610071578063d47fc1a3146104c9578063dadfd4e3146104f9578063eeb817d714610517578063fd4fa05a146105475761018e565b8063b28197611461045f578063b9daf0a31461048f578063c8aeda1f146104ab5761018e565b806388ea7d3c1461035e5780638c1efee11461037c5780638dbda662146103ac578063a34b46fe146103dc578063a87430ba1461040e578063ae47ad89146104435761018e565b806336059e0e1161014b57806369c212f61161012557806369c212f6146102ea5780636f78ce0b1461031a578063704f1b9414610338578063722f7b8b146103545761018e565b806336059e0e146102a657806345b8be09146102c25780635a5c823a146102cc5761018e565b8063177b75ca14610193578063181876b0146101c35780632426183b146101f357806325401155146102115780632596d8f9146102415780632bb4ce2d14610276575b600080fd5b6101ad60048036038101906101a89190613d8e565b61057a565b6040516101ba9190613f13565b60405180910390f35b6101dd60048036038101906101d89190613d8e565b61081f565b6040516101ea9190613f76565b60405180910390f35b6101fb610868565b6040516102089190613fa0565b60405180910390f35b61022b60048036038101906102269190613d8e565b61086f565b6040516102389190613fca565b60405180910390f35b61025b60048036038101906102569190614011565b6108a5565b60405161026d96959493929190614088565b60405180910390f35b610290600480360381019061028b919061412a565b610ac9565b60405161029d9190613fca565b60405180910390f35b6102c060048036038101906102bb919061412a565b610ae9565b005b6102ca610f3f565b005b6102d46111ad565b6040516102e19190613fa0565b60405180910390f35b61030460048036038101906102ff919061412a565b6111b4565b6040516103119190613f13565b60405180910390f35b610322611434565b60405161032f9190613fa0565b60405180910390f35b610352600480360381019061034d9190613d8e565b611439565b005b61035c61190e565b005b610366611af7565b60405161037391906142bf565b60405180910390f35b61039660048036038101906103919190613d8e565b611dc2565b6040516103a39190613fca565b60405180910390f35b6103c660048036038101906103c19190613d8e565b611e7e565b6040516103d39190613fca565b60405180910390f35b6103f660048036038101906103f19190614011565b611eb4565b60405161040593929190614501565b60405180910390f35b6104286004803603810190610423919061412a565b61284a565b60405161043a9695949392919061454d565b60405180910390f35b61045d600480360381019061045891906145b5565b61291b565b005b61047960048036038101906104749190613d8e565b6130c3565b6040516104869190613fa0565b60405180910390f35b6104a960048036038101906104a49190614659565b6131c0565b005b6104b361337a565b6040516104c09190613fa0565b60405180910390f35b6104e360048036038101906104de9190614686565b61337f565b6040516104f091906142bf565b60405180910390f35b610501613762565b60405161050e9190613fa0565b60405180910390f35b610531600480360381019061052c919061412a565b61376f565b60405161053e9190613fa0565b60405180910390f35b610561600480360381019061055c919061412a565b613787565b60405161057194939291906146c6565b60405180910390f35b610582613b3d565b60006001836040516105949190614747565b908152602001604051809103902060009054906101000a900473ffffffffffffffffffffffffffffffffffffffff169050600073ffffffffffffffffffffffffffffffffffffffff168173ffffffffffffffffffffffffffffffffffffffff1603610634576040517f08c379a000000000000000000000000000000000000000000000000000000000815260040161062b906147aa565b60405180910390fd5b600560008273ffffffffffffffffffffffffffffffffffffffff1673ffffffffffffffffffffffffffffffffffffffff16815260200190815260200160002060009054906101000a900460ff1680156106b957508073ffffffffffffffffffffffffffffffffffffffff163373ffffffffffffffffffffffffffffffffffffffff1614155b156106f9576040517f08c379a00000000000000000000000000000000000000000000000000000000081526004016106f090614816565b60405180910390fd5b6000808273ffffffffffffffffffffffffffffffffffffffff1673ffffffffffffffffffffffffffffffffffffffff1681526020019081526020016000206040518060c001604052908160008201805461075290614865565b80601f016020809104026020016040519081016040528092919081815260200182805461077e90614865565b80156107cb5780601f106107a0576101008083540402835291602001916107cb565b820191906000526020600020905b8154815290600101906020018083116107ae57829003601f168201915b5050505050815260200160018201548152602001600282015481526020016003820160009054906101000a900460ff1615151515815260200160048201548152602001600582015481525050915050919050565b6001818051602081018201805184825260208301602085012081835280955050505050506000915054906101000a900473ffffffffffffffffffffffffffffffffffffffff1681565b62093a8081565b6002818051602081018201805184825260208301602085012081835280955050505050506000915054906101000a900460ff1681565b600681815481106108b557600080fd5b90600052602060002090600602016000915090508060000160009054906101000a900473ffffffffffffffffffffffffffffffffffffffff16908060010160009054906101000a900473ffffffffffffffffffffffffffffffffffffffff169080600201805461092490614865565b80601f016020809104026020016040519081016040528092919081815260200182805461095090614865565b801561099d5780601f106109725761010080835404028352916020019161099d565b820191906000526020600020905b81548152906001019060200180831161098057829003601f168201915b5050505050908060030180546109b290614865565b80601f01602080910402602001604051908101604052809291908181526020018280546109de90614865565b8015610a2b5780601f10610a0057610100808354040283529160200191610a2b565b820191906000526020600020905b815481529060010190602001808311610a0e57829003601f168201915b505050505090806004015490806005018054610a4690614865565b80601f0160208091040260200160405190810160405280929190818152602001828054610a7290614865565b8015610abf5780601f10610a9457610100808354040283529160200191610abf565b820191906000526020600020905b815481529060010190602001808311610aa257829003601f168201915b5050505050905086565b60056020528060005260406000206000915054906101000a900460ff1681565b6000808273ffffffffffffffffffffffffffffffffffffffff1673ffffffffffffffffffffffffffffffffffffffff16815260200190815260200160002060030160009054906101000a900460ff16610b77576040517f08c379a0000000000000000000000000000000000000000000000000000000008152600401610b6e906148e2565b60405180910390fd5b60008060008373ffffffffffffffffffffffffffffffffffffffff1673ffffffffffffffffffffffffffffffffffffffff1681526020019081526020016000206005015411610bfb576040517f08c379a0000000000000000000000000000000000000000000000000000000008152600401610bf29061494e565b60405180910390fd5b62093a806000808373ffffffffffffffffffffffffffffffffffffffff1673ffffffffffffffffffffffffffffffffffffffff16815260200190815260200160002060050154610c4b919061499d565b421015610c8d576040517f08c379a0000000000000000000000000000000000000000000000000000000008152600401610c8490614a1d565b60405180910390fd5b60008060008373ffffffffffffffffffffffffffffffffffffffff1673ffffffffffffffffffffffffffffffffffffffff1681526020019081526020016000206000018054610cdb90614865565b80601f0160208091040260200160405190810160405280929190818152602001828054610d0790614865565b8015610d545780601f10610d2957610100808354040283529160200191610d54565b820191906000526020600020905b815481529060010190602001808311610d3757829003601f168201915b505050505090506001600382604051610d6d9190614747565b908152602001604051809103902060006101000a81548160ff02191690831515021790555042600460008473ffffffffffffffffffffffffffffffffffffffff1673ffffffffffffffffffffffffffffffffffffffff16815260200190815260200160002081905550600181604051610de69190614747565b908152602001604051809103902060006101000a81549073ffffffffffffffffffffffffffffffffffffffff02191690556000808373ffffffffffffffffffffffffffffffffffffffff1673ffffffffffffffffffffffffffffffffffffffff16815260200190815260200160002060008082016000610e669190613b75565b600182016000905560028201600090556003820160006101000a81549060ff0219169055600482016000905560058201600090555050600560008373ffffffffffffffffffffffffffffffffffffffff1673ffffffffffffffffffffffffffffffffffffffff16815260200190815260200160002060006101000a81549060ff02191690558173ffffffffffffffffffffffffffffffffffffffff167f4c91e7c01fe23a08e75ba243a015228ac4a7074d0f7a826e5a16e4712dabdfa38242604051610f33929190614a3d565b60405180910390a25050565b6000803373ffffffffffffffffffffffffffffffffffffffff1673ffffffffffffffffffffffffffffffffffffffff16815260200190815260200160002060030160009054906101000a900460ff16610fcd576040517f08c379a0000000000000000000000000000000000000000000000000000000008152600401610fc4906148e2565b60405180910390fd5b60008060003373ffffffffffffffffffffffffffffffffffffffff1673ffffffffffffffffffffffffffffffffffffffff1681526020019081526020016000206005015414611051576040517f08c379a000000000000000000000000000000000000000000000000000000000815260040161104890614ab9565b60405180910390fd5b60008060003373ffffffffffffffffffffffffffffffffffffffff1673ffffffffffffffffffffffffffffffffffffffff16815260200190815260200160002060050154146110d5576040517f08c379a00000000000000000000000000000000000000000000000000000000081526004016110cc90614b25565b60405180910390fd5b426000803373ffffffffffffffffffffffffffffffffffffffff1673ffffffffffffffffffffffffffffffffffffffff168152602001908152602001600020600501819055503373ffffffffffffffffffffffffffffffffffffffff167f5aa165aaf366219a8f128b00c992b278e1eea66ddbf14e068ec60c1b435479b06000803373ffffffffffffffffffffffffffffffffffffffff1673ffffffffffffffffffffffffffffffffffffffff168152602001908152602001600020600001426040516111a3929190614bde565b60405180910390a2565b62278d0081565b6111bc613b3d565b6000808373ffffffffffffffffffffffffffffffffffffffff1673ffffffffffffffffffffffffffffffffffffffff16815260200190815260200160002060030160009054906101000a900460ff1661124a576040517f08c379a0000000000000000000000000000000000000000000000000000000008152600401611241906148e2565b60405180910390fd5b600560008373ffffffffffffffffffffffffffffffffffffffff1673ffffffffffffffffffffffffffffffffffffffff16815260200190815260200160002060009054906101000a900460ff1680156112cf57508173ffffffffffffffffffffffffffffffffffffffff163373ffffffffffffffffffffffffffffffffffffffff1614155b1561130f576040517f08c379a000000000000000000000000000000000000000000000000000000000815260040161130690614816565b60405180910390fd5b6000808373ffffffffffffffffffffffffffffffffffffffff1673ffffffffffffffffffffffffffffffffffffffff1681526020019081526020016000206040518060c001604052908160008201805461136890614865565b80601f016020809104026020016040519081016040528092919081815260200182805461139490614865565b80156113e15780601f106113b6576101008083540402835291602001916113e1565b820191906000526020600020905b8154815290600101906020018083116113c457829003601f168201915b5050505050815260200160018201548152602001600282015481526020016003820160009054906101000a900460ff16151515158152602001600482015481526020016005820154815250509050919050565b600f81565b60038151101561147e576040517f08c379a000000000000000000000000000000000000000000000000000000000815260040161147590614c5a565b60405180910390fd5b600f815111156114c3576040517f08c379a00000000000000000000000000000000000000000000000000000000081526004016114ba90614cc6565b60405180910390fd5b6114cc81613987565b61150b576040517f08c379a000000000000000000000000000000000000000000000000000000000815260040161150290614d32565b60405180910390fd5b6000803373ffffffffffffffffffffffffffffffffffffffff1673ffffffffffffffffffffffffffffffffffffffff16815260200190815260200160002060030160009054906101000a900460ff161561159a576040517f08c379a000000000000000000000000000000000000000000000000000000000815260040161159190614d9e565b60405180910390fd5b600073ffffffffffffffffffffffffffffffffffffffff166001826040516115c29190614747565b908152602001604051809103902060009054906101000a900473ffffffffffffffffffffffffffffffffffffffff1673ffffffffffffffffffffffffffffffffffffffff1614611647576040517f08c379a000000000000000000000000000000000000000000000000000000000815260040161163e90614e0a565b60405180910390fd5b6003816040516116579190614747565b908152602001604051809103902060009054906101000a900460ff16156116b3576040517f08c379a00000000000000000000000000000000000000000000000000000000081526004016116aa90614e76565b60405180910390fd5b6000600460003373ffffffffffffffffffffffffffffffffffffffff1673ffffffffffffffffffffffffffffffffffffffff16815260200190815260200160002054111561178c5762278d00600460003373ffffffffffffffffffffffffffffffffffffffff1673ffffffffffffffffffffffffffffffffffffffff16815260200190815260200160002054611749919061499d565b42101561178b576040517f08c379a000000000000000000000000000000000000000000000000000000000815260040161178290614f08565b60405180910390fd5b5b6040518060c00160405280828152602001600081526020016000815260200160011515815260200142815260200160008152506000803373ffffffffffffffffffffffffffffffffffffffff1673ffffffffffffffffffffffffffffffffffffffff168152602001908152602001600020600082015181600001908161181291906150bf565b50602082015181600101556040820151816002015560608201518160030160006101000a81548160ff0219169083151502179055506080820151816004015560a082015181600501559050503360018260405161186f9190614747565b908152602001604051809103902060006101000a81548173ffffffffffffffffffffffffffffffffffffffff021916908373ffffffffffffffffffffffffffffffffffffffff1602179055503373ffffffffffffffffffffffffffffffffffffffff167f89105a1c6a3c2fbd471255c66a31ccab604af5697f67d7e2e9a0028c5e4dbd918242604051611903929190614a3d565b60405180910390a250565b6000803373ffffffffffffffffffffffffffffffffffffffff1673ffffffffffffffffffffffffffffffffffffffff16815260200190815260200160002060030160009054906101000a900460ff1661199c576040517f08c379a0000000000000000000000000000000000000000000000000000000008152600401611993906148e2565b60405180910390fd5b60008060003373ffffffffffffffffffffffffffffffffffffffff1673ffffffffffffffffffffffffffffffffffffffff1681526020019081526020016000206005015411611a20576040517f08c379a0000000000000000000000000000000000000000000000000000000008152600401611a179061494e565b60405180910390fd5b60008060003373ffffffffffffffffffffffffffffffffffffffff1673ffffffffffffffffffffffffffffffffffffffff168152602001908152602001600020600501819055503373ffffffffffffffffffffffffffffffffffffffff167f4b59c04ca04c395030ac9256d323311c6586a765a3b333baddad655ffa2b51dd6000803373ffffffffffffffffffffffffffffffffffffffff1673ffffffffffffffffffffffffffffffffffffffff168152602001908152602001600020600001604051611aed9190615191565b60405180910390a2565b60606006805480602002602001604051908101604052809291908181526020016000905b82821015611db957838290600052602060002090600602016040518060c00160405290816000820160009054906101000a900473ffffffffffffffffffffffffffffffffffffffff1673ffffffffffffffffffffffffffffffffffffffff1673ffffffffffffffffffffffffffffffffffffffff1681526020016001820160009054906101000a900473ffffffffffffffffffffffffffffffffffffffff1673ffffffffffffffffffffffffffffffffffffffff1673ffffffffffffffffffffffffffffffffffffffff168152602001600282018054611bfa90614865565b80601f0160208091040260200160405190810160405280929190818152602001828054611c2690614865565b8015611c735780601f10611c4857610100808354040283529160200191611c73565b820191906000526020600020905b815481529060010190602001808311611c5657829003601f168201915b50505050508152602001600382018054611c8c90614865565b80601f0160208091040260200160405190810160405280929190818152602001828054611cb890614865565b8015611d055780601f10611cda57610100808354040283529160200191611d05565b820191906000526020600020905b815481529060010190602001808311611ce857829003601f168201915b5050505050815260200160048201548152602001600582018054611d2890614865565b80601f0160208091040260200160405190810160405280929190818152602001828054611d5490614865565b8015611da15780601f10611d7657610100808354040283529160200191611da1565b820191906000526020600020905b815481529060010190602001808311611d8457829003601f168201915b50505050508152505081526020019060010190611b1b565b50505050905090565b60008073ffffffffffffffffffffffffffffffffffffffff16600183604051611deb9190614747565b908152602001604051809103902060009054906101000a900473ffffffffffffffffffffffffffffffffffffffff1673ffffffffffffffffffffffffffffffffffffffff16148015611e665750600382604051611e489190614747565b908152602001604051809103902060009054906101000a900460ff16155b8015611e775750611e7682613987565b5b9050919050565b6003818051602081018201805184825260208301602085012081835280955050505050506000915054906101000a900460ff1681565b6060806060600060068054905090506000600282611ed291906151b3565b67ffffffffffffffff811115611eeb57611eea613c63565b5b604051908082528060200260200182016040528015611f195781602001602082028036833780820191505090505b5090506000805b8381101561235557600060068281548110611f3e57611f3d6151f5565b5b906000526020600020906006020160000160009054906101000a900473ffffffffffffffffffffffffffffffffffffffff169050600060068381548110611f8857611f876151f5565b5b906000526020600020906006020160010160009054906101000a900473ffffffffffffffffffffffffffffffffffffffff16905060008060005b86811015612081578473ffffffffffffffffffffffffffffffffffffffff16888281518110611ff457611ff36151f5565b5b602002602001015173ffffffffffffffffffffffffffffffffffffffff160361201c57600192505b8373ffffffffffffffffffffffffffffffffffffffff16888281518110612046576120456151f5565b5b602002602001015173ffffffffffffffffffffffffffffffffffffffff160361206e57600191505b808061207990615224565b915050611fc2565b50811580156120db57506000808573ffffffffffffffffffffffffffffffffffffffff1673ffffffffffffffffffffffffffffffffffffffff16815260200190815260200160002060030160009054906101000a900460ff165b8015612128575060008060008673ffffffffffffffffffffffffffffffffffffffff1673ffffffffffffffffffffffffffffffffffffffff16815260200190815260200160002060050154145b801561217e5750600560008573ffffffffffffffffffffffffffffffffffffffff1673ffffffffffffffffffffffffffffffffffffffff16815260200190815260200160002060009054906101000a900460ff16155b156121e05783878781518110612197576121966151f5565b5b602002602001019073ffffffffffffffffffffffffffffffffffffffff16908173ffffffffffffffffffffffffffffffffffffffff168152505085806121dc90615224565b9650505b8015801561223957506000808473ffffffffffffffffffffffffffffffffffffffff1673ffffffffffffffffffffffffffffffffffffffff16815260200190815260200160002060030160009054906101000a900460ff165b8015612286575060008060008573ffffffffffffffffffffffffffffffffffffffff1673ffffffffffffffffffffffffffffffffffffffff16815260200190815260200160002060050154145b80156122dc5750600560008473ffffffffffffffffffffffffffffffffffffffff1673ffffffffffffffffffffffffffffffffffffffff16815260200190815260200160002060009054906101000a900460ff16155b1561233e57828787815181106122f5576122f46151f5565b5b602002602001019073ffffffffffffffffffffffffffffffffffffffff16908173ffffffffffffffffffffffffffffffffffffffff1681525050858061233a90615224565b9650505b50505050808061234d90615224565b915050611f20565b5060005b600182612366919061526c565b81101561256f5760005b6001828461237e919061526c565b612388919061526c565b81101561255b57600080856001846123a0919061499d565b815181106123b1576123b06151f5565b5b602002602001015173ffffffffffffffffffffffffffffffffffffffff1673ffffffffffffffffffffffffffffffffffffffff1681526020019081526020016000206001015460008086848151811061240d5761240c6151f5565b5b602002602001015173ffffffffffffffffffffffffffffffffffffffff1673ffffffffffffffffffffffffffffffffffffffff16815260200190815260200160002060010154101561254857600084828151811061246e5761246d6151f5565b5b6020026020010151905084600183612486919061499d565b81518110612497576124966151f5565b5b60200260200101518583815181106124b2576124b16151f5565b5b602002602001019073ffffffffffffffffffffffffffffffffffffffff16908173ffffffffffffffffffffffffffffffffffffffff168152505080856001846124fb919061499d565b8151811061250c5761250b6151f5565b5b602002602001019073ffffffffffffffffffffffffffffffffffffffff16908173ffffffffffffffffffffffffffffffffffffffff1681525050505b808061255390615224565b915050612370565b50808061256790615224565b915050612359565b50600081881061257f5781612581565b875b90508067ffffffffffffffff81111561259d5761259c613c63565b5b6040519080825280602002602001820160405280156125d057816020015b60608152602001906001900390816125bb5790505b5096508067ffffffffffffffff8111156125ed576125ec613c63565b5b60405190808252806020026020018201604052801561261b5781602001602082028036833780820191505090505b5095508067ffffffffffffffff81111561263857612637613c63565b5b6040519080825280602002602001820160405280156126665781602001602082028036833780820191505090505b50945060005b8181101561283e576000848281518110612689576126886151f5565b5b602002602001015190506000808273ffffffffffffffffffffffffffffffffffffffff1673ffffffffffffffffffffffffffffffffffffffff16815260200190815260200160002060000180546126df90614865565b80601f016020809104026020016040519081016040528092919081815260200182805461270b90614865565b80156127585780601f1061272d57610100808354040283529160200191612758565b820191906000526020600020905b81548152906001019060200180831161273b57829003601f168201915b50505050508983815181106127705761276f6151f5565b5b60200260200101819052506000808273ffffffffffffffffffffffffffffffffffffffff1673ffffffffffffffffffffffffffffffffffffffff168152602001908152602001600020600101548883815181106127d0576127cf6151f5565b5b602002602001018181525050808783815181106127f0576127ef6151f5565b5b602002602001019073ffffffffffffffffffffffffffffffffffffffff16908173ffffffffffffffffffffffffffffffffffffffff168152505050808061283690615224565b91505061266c565b50505050509193909250565b600060205280600052604060002060009150905080600001805461286d90614865565b80601f016020809104026020016040519081016040528092919081815260200182805461289990614865565b80156128e65780601f106128bb576101008083540402835291602001916128e6565b820191906000526020600020905b8154815290600101906020018083116128c957829003601f168201915b5050505050908060010154908060020154908060030160009054906101000a900460ff16908060040154908060050154905086565b6000803373ffffffffffffffffffffffffffffffffffffffff1673ffffffffffffffffffffffffffffffffffffffff16815260200190815260200160002060030160009054906101000a900460ff166129a9576040517f08c379a00000000000000000000000000000000000000000000000000000000081526004016129a0906148e2565b60405180910390fd5b60008060003373ffffffffffffffffffffffffffffffffffffffff1673ffffffffffffffffffffffffffffffffffffffff1681526020019081526020016000206005015414612a2d576040517f08c379a0000000000000000000000000000000000000000000000000000000008152600401612a2490614ab9565b60405180910390fd5b60008060003373ffffffffffffffffffffffffffffffffffffffff1673ffffffffffffffffffffffffffffffffffffffff1681526020019081526020016000206005015414612ab1576040517f08c379a0000000000000000000000000000000000000000000000000000000008152600401612aa890614ab9565b60405180910390fd5b6000815111612af5576040517f08c379a0000000000000000000000000000000000000000000000000000000008152600401612aec906152ec565b60405180910390fd5b600281604051612b059190614747565b908152602001604051809103902060009054906101000a900460ff1615612b61576040517f08c379a0000000000000000000000000000000000000000000000000000000008152600401612b5890615358565b60405180910390fd5b6000600183604051612b739190614747565b908152602001604051809103902060009054906101000a900473ffffffffffffffffffffffffffffffffffffffff169050600073ffffffffffffffffffffffffffffffffffffffff168173ffffffffffffffffffffffffffffffffffffffff1603612c13576040517f08c379a0000000000000000000000000000000000000000000000000000000008152600401612c0a906153c4565b60405180910390fd5b3373ffffffffffffffffffffffffffffffffffffffff168173ffffffffffffffffffffffffffffffffffffffff1603612c81576040517f08c379a0000000000000000000000000000000000000000000000000000000008152600401612c7890615430565b60405180910390fd5b60008060008373ffffffffffffffffffffffffffffffffffffffff1673ffffffffffffffffffffffffffffffffffffffff1681526020019081526020016000206005015414612d05576040517f08c379a0000000000000000000000000000000000000000000000000000000008152600401612cfc9061549c565b60405180910390fd5b6000803373ffffffffffffffffffffffffffffffffffffffff1673ffffffffffffffffffffffffffffffffffffffff1681526020019081526020016000206002016000815480929190612d5790615224565b91905055506000808273ffffffffffffffffffffffffffffffffffffffff1673ffffffffffffffffffffffffffffffffffffffff1681526020019081526020016000206001016000815480929190612dae90615224565b919050555060066040518060c001604052803373ffffffffffffffffffffffffffffffffffffffff1681526020018373ffffffffffffffffffffffffffffffffffffffff1681526020016000803373ffffffffffffffffffffffffffffffffffffffff1673ffffffffffffffffffffffffffffffffffffffff1681526020019081526020016000206000018054612e4490614865565b80601f0160208091040260200160405190810160405280929190818152602001828054612e7090614865565b8015612ebd5780601f10612e9257610100808354040283529160200191612ebd565b820191906000526020600020905b815481529060010190602001808311612ea057829003601f168201915b5050505050815260200185815260200142815260200184815250908060018154018082558091505060019003906000526020600020906006020160009091909190915060008201518160000160006101000a81548173ffffffffffffffffffffffffffffffffffffffff021916908373ffffffffffffffffffffffffffffffffffffffff16021790555060208201518160010160006101000a81548173ffffffffffffffffffffffffffffffffffffffff021916908373ffffffffffffffffffffffffffffffffffffffff1602179055506040820151816002019081612fa391906150bf565b506060820151816003019081612fb991906150bf565b506080820151816004015560a0820151816005019081612fd991906150bf565b5050506001600283604051612fee9190614747565b908152602001604051809103902060006101000a81548160ff0219169083151502179055508073ffffffffffffffffffffffffffffffffffffffff163373ffffffffffffffffffffffffffffffffffffffff167ff6f3235466663ccc251455b10b39148d94bdabd70ac6738ab28996d6c3899fcd6000803373ffffffffffffffffffffffffffffffffffffffff1673ffffffffffffffffffffffffffffffffffffffff1681526020019081526020016000206000018686426040516130b694939291906154bc565b60405180910390a3505050565b6000806001836040516130d69190614747565b908152602001604051809103902060009054906101000a900473ffffffffffffffffffffffffffffffffffffffff169050600073ffffffffffffffffffffffffffffffffffffffff168173ffffffffffffffffffffffffffffffffffffffff1603613176576040517f08c379a000000000000000000000000000000000000000000000000000000000815260040161316d906147aa565b60405180910390fd5b6000808273ffffffffffffffffffffffffffffffffffffffff1673ffffffffffffffffffffffffffffffffffffffff16815260200190815260200160002060010154915050919050565b6000803373ffffffffffffffffffffffffffffffffffffffff1673ffffffffffffffffffffffffffffffffffffffff16815260200190815260200160002060030160009054906101000a900460ff1661324e576040517f08c379a0000000000000000000000000000000000000000000000000000000008152600401613245906148e2565b60405180910390fd5b60008060003373ffffffffffffffffffffffffffffffffffffffff1673ffffffffffffffffffffffffffffffffffffffff16815260200190815260200160002060050154146132d2576040517f08c379a00000000000000000000000000000000000000000000000000000000081526004016132c990614ab9565b60405180910390fd5b80600560003373ffffffffffffffffffffffffffffffffffffffff1673ffffffffffffffffffffffffffffffffffffffff16815260200190815260200160002060006101000a81548160ff0219169083151502179055503373ffffffffffffffffffffffffffffffffffffffff167fc3b9a9899c50bd10693b5fe19758060e8d874e647d501ef576966e702caeee158260405161336f9190613fca565b60405180910390a250565b600381565b6060600060068054905090508084106133ef57600067ffffffffffffffff8111156133ad576133ac613c63565b5b6040519080825280602002602001820160405280156133e657816020015b6133d3613bb5565b8152602001906001900390816133cb5790505b5091505061375c565b600083856133fd919061499d565b90508181111561340b578190505b60008582613419919061526c565b905060008167ffffffffffffffff81111561343757613436613c63565b5b60405190808252806020026020018201604052801561347057816020015b61345d613bb5565b8152602001906001900390816134555790505b50905060005b82811015613753576006818961348c919061499d565b8154811061349d5761349c6151f5565b5b90600052602060002090600602016040518060c00160405290816000820160009054906101000a900473ffffffffffffffffffffffffffffffffffffffff1673ffffffffffffffffffffffffffffffffffffffff1673ffffffffffffffffffffffffffffffffffffffff1681526020016001820160009054906101000a900473ffffffffffffffffffffffffffffffffffffffff1673ffffffffffffffffffffffffffffffffffffffff1673ffffffffffffffffffffffffffffffffffffffff16815260200160028201805461357290614865565b80601f016020809104026020016040519081016040528092919081815260200182805461359e90614865565b80156135eb5780601f106135c0576101008083540402835291602001916135eb565b820191906000526020600020905b8154815290600101906020018083116135ce57829003601f168201915b5050505050815260200160038201805461360490614865565b80601f016020809104026020016040519081016040528092919081815260200182805461363090614865565b801561367d5780601f106136525761010080835404028352916020019161367d565b820191906000526020600020905b81548152906001019060200180831161366057829003601f168201915b50505050508152602001600482015481526020016005820180546136a090614865565b80601f01602080910402602001604051908101604052809291908181526020018280546136cc90614865565b80156137195780601f106136ee57610100808354040283529160200191613719565b820191906000526020600020905b8154815290600101906020018083116136fc57829003601f168201915b505050505081525050828281518110613735576137346151f5565b5b6020026020010181905250808061374b90615224565b915050613476565b50809450505050505b92915050565b6000600680549050905090565b60046020528060005260406000206000915090505481565b60008060008060008060008773ffffffffffffffffffffffffffffffffffffffff1673ffffffffffffffffffffffffffffffffffffffff1681526020019081526020016000206040518060c00160405290816000820180546137e890614865565b80601f016020809104026020016040519081016040528092919081815260200182805461381490614865565b80156138615780601f1061383657610100808354040283529160200191613861565b820191906000526020600020905b81548152906001019060200180831161384457829003601f168201915b5050505050815260200160018201548152602001600282015481526020016003820160009054906101000a900460ff161515151581526020016004820154815260200160058201548152505090508060600151945060008160a00151119350836138cc5760006138e0565b62093a808160a001516138df919061499d565b5b92506000600460008873ffffffffffffffffffffffffffffffffffffffff1673ffffffffffffffffffffffffffffffffffffffff16815260200190815260200160002054148061397d575062278d00600460008873ffffffffffffffffffffffffffffffffffffffff1673ffffffffffffffffffffffffffffffffffffffff16815260200190815260200160002054613979919061499d565b4210155b9150509193509193565b60008082905060005b8151811015613b315760008282815181106139ae576139ad6151f5565b5b602001015160f81c60f81b9050603060f81b817effffffffffffffffffffffffffffffffffffffffffffffffffffffffffffff191610158015613a175750603960f81b817effffffffffffffffffffffffffffffffffffffffffffffffffffffffffffff191611155b80613a7a5750604160f81b817effffffffffffffffffffffffffffffffffffffffffffffffffffffffffffff191610158015613a795750605a60f81b817effffffffffffffffffffffffffffffffffffffffffffffffffffffffffffff191611155b5b80613add5750606160f81b817effffffffffffffffffffffffffffffffffffffffffffffffffffffffffffff191610158015613adc5750607a60f81b817effffffffffffffffffffffffffffffffffffffffffffffffffffffffffffff191611155b5b80613b0d5750605f60f81b817effffffffffffffffffffffffffffffffffffffffffffffffffffffffffffff1916145b613b1d5760009350505050613b38565b508080613b2990615224565b915050613990565b5060019150505b919050565b6040518060c0016040528060608152602001600081526020016000815260200160001515815260200160008152602001600081525090565b508054613b8190614865565b6000825580601f10613b935750613bb2565b601f016020900490600052602060002090810190613bb19190613c17565b5b50565b6040518060c00160405280600073ffffffffffffffffffffffffffffffffffffffff168152602001600073ffffffffffffffffffffffffffffffffffffffff168152602001606081526020016060815260200160008152602001606081525090565b5b80821115613c30576000816000905550600101613c18565b5090565b6000604051905090565b600080fd5b600080fd5b600080fd5b600080fd5b6000601f19601f8301169050919050565b7f4e487b7100000000000000000000000000000000000000000000000000000000600052604160045260246000fd5b613c9b82613c52565b810181811067ffffffffffffffff82111715613cba57613cb9613c63565b5b80604052505050565b6000613ccd613c34565b9050613cd98282613c92565b919050565b600067ffffffffffffffff821115613cf957613cf8613c63565b5b613d0282613c52565b9050602081019050919050565b82818337600083830152505050565b6000613d31613d2c84613cde565b613cc3565b905082815260208101848484011115613d4d57613d4c613c4d565b5b613d58848285613d0f565b509392505050565b600082601f830112613d7557613d74613c48565b5b8135613d85848260208601613d1e565b91505092915050565b600060208284031215613da457613da3613c3e565b5b600082013567ffffffffffffffff811115613dc257613dc1613c43565b5b613dce84828501613d60565b91505092915050565b600081519050919050565b600082825260208201905092915050565b60005b83811015613e11578082015181840152602081019050613df6565b60008484015250505050565b6000613e2882613dd7565b613e328185613de2565b9350613e42818560208601613df3565b613e4b81613c52565b840191505092915050565b6000819050919050565b613e6981613e56565b82525050565b60008115159050919050565b613e8481613e6f565b82525050565b600060c0830160008301518482036000860152613ea78282613e1d565b9150506020830151613ebc6020860182613e60565b506040830151613ecf6040860182613e60565b506060830151613ee26060860182613e7b565b506080830151613ef56080860182613e60565b5060a0830151613f0860a0860182613e60565b508091505092915050565b60006020820190508181036000830152613f2d8184613e8a565b905092915050565b600073ffffffffffffffffffffffffffffffffffffffff82169050919050565b6000613f6082613f35565b9050919050565b613f7081613f55565b82525050565b6000602082019050613f8b6000830184613f67565b92915050565b613f9a81613e56565b82525050565b6000602082019050613fb56000830184613f91565b92915050565b613fc481613e6f565b82525050565b6000602082019050613fdf6000830184613fbb565b92915050565b613fee81613e56565b8114613ff957600080fd5b50565b60008135905061400b81613fe5565b92915050565b60006020828403121561402757614026613c3e565b5b600061403584828501613ffc565b91505092915050565b600082825260208201905092915050565b600061405a82613dd7565b614064818561403e565b9350614074818560208601613df3565b61407d81613c52565b840191505092915050565b600060c08201905061409d6000830189613f67565b6140aa6020830188613f67565b81810360408301526140bc818761404f565b905081810360608301526140d0818661404f565b90506140df6080830185613f91565b81810360a08301526140f1818461404f565b9050979650505050505050565b61410781613f55565b811461411257600080fd5b50565b600081359050614124816140fe565b92915050565b6000602082840312156141405761413f613c3e565b5b600061414e84828501614115565b91505092915050565b600081519050919050565b600082825260208201905092915050565b6000819050602082019050919050565b61418c81613f55565b82525050565b600060c0830160008301516141aa6000860182614183565b5060208301516141bd6020860182614183565b50604083015184820360408601526141d58282613e1d565b915050606083015184820360608601526141ef8282613e1d565b91505060808301516142046080860182613e60565b5060a083015184820360a086015261421c8282613e1d565b9150508091505092915050565b60006142358383614192565b905092915050565b6000602082019050919050565b600061425582614157565b61425f8185614162565b93508360208202850161427185614173565b8060005b858110156142ad578484038952815161428e8582614229565b94506142998361423d565b925060208a01995050600181019050614275565b50829750879550505050505092915050565b600060208201905081810360008301526142d9818461424a565b905092915050565b600081519050919050565b600082825260208201905092915050565b6000819050602082019050919050565b60006143198383613e1d565b905092915050565b6000602082019050919050565b6000614339826142e1565b61434381856142ec565b935083602082028501614355856142fd565b8060005b858110156143915784840389528151614372858261430d565b945061437d83614321565b925060208a01995050600181019050614359565b50829750879550505050505092915050565b600081519050919050565b600082825260208201905092915050565b6000819050602082019050919050565b60006143db8383613e60565b60208301905092915050565b6000602082019050919050565b60006143ff826143a3565b61440981856143ae565b9350614414836143bf565b8060005b8381101561444557815161442c88826143cf565b9750614437836143e7565b925050600181019050614418565b5085935050505092915050565b600081519050919050565b600082825260208201905092915050565b6000819050602082019050919050565b600061448a8383614183565b60208301905092915050565b6000602082019050919050565b60006144ae82614452565b6144b8818561445d565b93506144c38361446e565b8060005b838110156144f45781516144db888261447e565b97506144e683614496565b9250506001810190506144c7565b5085935050505092915050565b6000606082019050818103600083015261451b818661432e565b9050818103602083015261452f81856143f4565b9050818103604083015261454381846144a3565b9050949350505050565b600060c0820190508181036000830152614567818961404f565b90506145766020830188613f91565b6145836040830187613f91565b6145906060830186613fbb565b61459d6080830185613f91565b6145aa60a0830184613f91565b979650505050505050565b600080604083850312156145cc576145cb613c3e565b5b600083013567ffffffffffffffff8111156145ea576145e9613c43565b5b6145f685828601613d60565b925050602083013567ffffffffffffffff81111561461757614616613c43565b5b61462385828601613d60565b9150509250929050565b61463681613e6f565b811461464157600080fd5b50565b6000813590506146538161462d565b92915050565b60006020828403121561466f5761466e613c3e565b5b600061467d84828501614644565b91505092915050565b6000806040838503121561469d5761469c613c3e565b5b60006146ab85828601613ffc565b92505060206146bc85828601613ffc565b9150509250929050565b60006080820190506146db6000830187613fbb565b6146e86020830186613fbb565b6146f56040830185613f91565b6147026060830184613fbb565b95945050505050565b600081905092915050565b600061472182613dd7565b61472b818561470b565b935061473b818560208601613df3565b80840191505092915050565b60006147538284614716565b915081905092915050565b7f55736572206e6f7420666f756e64000000000000000000000000000000000000600082015250565b6000614794600e8361403e565b915061479f8261475e565b602082019050919050565b600060208201905081810360008301526147c381614787565b9050919050565b7f50726f66696c6520697320707269766174650000000000000000000000000000600082015250565b600061480060128361403e565b915061480b826147ca565b602082019050919050565b6000602082019050818103600083015261482f816147f3565b9050919050565b7f4e487b7100000000000000000000000000000000000000000000000000000000600052602260045260246000fd5b6000600282049050600182168061487d57607f821691505b6020821081036148905761488f614836565b5b50919050565b7f55736572206e6f74207265676973746572656400000000000000000000000000600082015250565b60006148cc60138361403e565b91506148d782614896565b602082019050919050565b600060208201905081810360008301526148fb816148bf565b9050919050565b7f4e6f2064656c6574696f6e20726571756573742070656e64696e670000000000600082015250565b6000614938601b8361403e565b915061494382614902565b602082019050919050565b600060208201905081810360008301526149678161492b565b9050919050565b7f4e487b7100000000000000000000000000000000000000000000000000000000600052601160045260246000fd5b60006149a882613e56565b91506149b383613e56565b92508282019050808211156149cb576149ca61496e565b5b92915050565b7f477261636520706572696f64206e6f7420657870697265640000000000000000600082015250565b6000614a0760188361403e565b9150614a12826149d1565b602082019050919050565b60006020820190508181036000830152614a36816149fa565b9050919050565b60006040820190508181036000830152614a57818561404f565b9050614a666020830184613f91565b9392505050565b7f4163636f756e742070656e64696e672064656c6574696f6e0000000000000000600082015250565b6000614aa360188361403e565b9150614aae82614a6d565b602082019050919050565b60006020820190508181036000830152614ad281614a96565b9050919050565b7f44656c6574696f6e20616c726561647920726571756573746564000000000000600082015250565b6000614b0f601a8361403e565b9150614b1a82614ad9565b602082019050919050565b60006020820190508181036000830152614b3e81614b02565b9050919050565b60008190508160005260206000209050919050565b60008154614b6781614865565b614b71818661403e565b94506001821660008114614b8c5760018114614ba257614bd5565b60ff198316865281151560200286019350614bd5565b614bab85614b45565b60005b83811015614bcd57815481890152600182019150602081019050614bae565b808801955050505b50505092915050565b60006040820190508181036000830152614bf88185614b5a565b9050614c076020830184613f91565b9392505050565b7f48616e646c6520746f6f2073686f727400000000000000000000000000000000600082015250565b6000614c4460108361403e565b9150614c4f82614c0e565b602082019050919050565b60006020820190508181036000830152614c7381614c37565b9050919050565b7f48616e646c6520746f6f206c6f6e670000000000000000000000000000000000600082015250565b6000614cb0600f8361403e565b9150614cbb82614c7a565b602082019050919050565b60006020820190508181036000830152614cdf81614ca3565b9050919050565b7f496e76616c69642068616e646c6520666f726d61740000000000000000000000600082015250565b6000614d1c60158361403e565b9150614d2782614ce6565b602082019050919050565b60006020820190508181036000830152614d4b81614d0f565b9050919050565b7f5573657220616c72656164792072656769737465726564000000000000000000600082015250565b6000614d8860178361403e565b9150614d9382614d52565b602082019050919050565b60006020820190508181036000830152614db781614d7b565b9050919050565b7f48616e646c6520616c72656164792074616b656e000000000000000000000000600082015250565b6000614df460148361403e565b9150614dff82614dbe565b602082019050919050565b60006020820190508181036000830152614e2381614de7565b9050919050565b7f48616e646c65207065726d616e656e746c792072657469726564000000000000600082015250565b6000614e60601a8361403e565b9150614e6b82614e2a565b602082019050919050565b60006020820190508181036000830152614e8f81614e53565b9050919050565b7f5265726567697374726174696f6e20636f6f6c646f776e20706572696f64206160008201527f6374697665000000000000000000000000000000000000000000000000000000602082015250565b6000614ef260258361403e565b9150614efd82614e96565b604082019050919050565b60006020820190508181036000830152614f2181614ee5565b9050919050565b60006020601f8301049050919050565b600082821b905092915050565b600060088302614f757fffffffffffffffffffffffffffffffffffffffffffffffffffffffffffffffff82614f38565b614f7f8683614f38565b95508019841693508086168417925050509392505050565b6000819050919050565b6000614fbc614fb7614fb284613e56565b614f97565b613e56565b9050919050565b6000819050919050565b614fd683614fa1565b614fea614fe282614fc3565b848454614f45565b825550505050565b600090565b614fff614ff2565b61500a818484614fcd565b505050565b5b8181101561502e57615023600082614ff7565b600181019050615010565b5050565b601f8211156150735761504481614b45565b61504d84614f28565b8101602085101561505c578190505b61507061506885614f28565b83018261500f565b50505b505050565b600082821c905092915050565b600061509660001984600802615078565b1980831691505092915050565b60006150af8383615085565b9150826002028217905092915050565b6150c882613dd7565b67ffffffffffffffff8111156150e1576150e0613c63565b5b6150eb8254614865565b6150f6828285615032565b600060209050601f8311600181146151295760008415615117578287015190505b61512185826150a3565b865550615189565b601f19841661513786614b45565b60005b8281101561515f5784890151825560018201915060208501945060208101905061513a565b8683101561517c5784890151615178601f891682615085565b8355505b6001600288020188555050505b505050505050565b600060208201905081810360008301526151ab8184614b5a565b905092915050565b60006151be82613e56565b91506151c983613e56565b92508282026151d781613e56565b915082820484148315176151ee576151ed61496e565b5b5092915050565b7f4e487b7100000000000000000000000000000000000000000000000000000000600052603260045260246000fd5b600061522f82613e56565b91507fffffffffffffffffffffffffffffffffffffffffffffffffffffffffffffffff82036152615761526061496e565b5b600182019050919050565b600061527782613e56565b915061528283613e56565b925082820390508181111561529a5761529961496e565b5b92915050565b7f54776565742055524c2072657175697265640000000000000000000000000000600082015250565b60006152d660128361403e565b91506152e1826152a0565b602082019050919050565b60006020820190508181036000830152615305816152c9565b9050919050565b7f547765657420616c72656164792070726f636573736564000000000000000000600082015250565b600061534260178361403e565b915061534d8261530c565b602082019050919050565b6000602082019050818103600083015261537181615335565b9050919050565b7f526563697069656e74206e6f7420726567697374657265640000000000000000600082015250565b60006153ae60188361403e565b91506153b982615378565b602082019050919050565b600060208201905081810360008301526153dd816153a1565b9050919050565b7f43616e6e6f742067697665206b75646f7320746f20796f757273656c66000000600082015250565b600061541a601d8361403e565b9150615425826153e4565b602082019050919050565b600060208201905081810360008301526154498161540d565b9050919050565b7f526563697069656e742070656e64696e672064656c6574696f6e000000000000600082015250565b6000615486601a8361403e565b915061549182615450565b602082019050919050565b600060208201905081810360008301526154b581615479565b9050919050565b600060808201905081810360008301526154d68187614b5a565b905081810360208301526154ea818661404f565b905081810360408301526154fe818561404f565b905061550d6060830184613f91565b9594505050505056fea264697066735822122002e32153e414a638f54decc0787a22b70e9f41b0b0a749cc589aaccf38aeaf7264736f6c63430008130033",
  "linkReferences": {},
  "deployedLinkReferences": {}
}